{
  "_format": "hh-sol-artifact-1",
  "contractName": "DegenToken",
  "sourceName": "contracts/DegenToken.sol",
  "abi": [
    {
      "inputs": [],
      "stateMutability": "nonpayable",
      "type": "constructor"
    },
    {
      "anonymous": false,
      "inputs": [
        {
          "indexed": true,
          "internalType": "address",
          "name": "from",
          "type": "address"
        },
        {
          "indexed": false,
          "internalType": "uint256",
          "name": "value",
          "type": "uint256"
        }
      ],
      "name": "Burn",
      "type": "event"
    },
    {
      "anonymous": false,
      "inputs": [
        {
          "indexed": true,
          "internalType": "address",
          "name": "to",
          "type": "address"
        },
        {
          "indexed": false,
          "internalType": "uint256",
          "name": "value",
          "type": "uint256"
        }
      ],
      "name": "Mint",
      "type": "event"
    },
    {
      "anonymous": false,
      "inputs": [
        {
          "indexed": true,
          "internalType": "address",
          "name": "from",
          "type": "address"
        },
        {
          "indexed": false,
          "internalType": "uint256",
          "name": "value",
          "type": "uint256"
        },
        {
          "indexed": false,
          "internalType": "string",
          "name": "reward",
          "type": "string"
        }
      ],
      "name": "Redeem",
      "type": "event"
    },
    {
      "anonymous": false,
      "inputs": [
        {
          "indexed": true,
          "internalType": "address",
          "name": "from",
          "type": "address"
        },
        {
          "indexed": true,
          "internalType": "address",
          "name": "to",
          "type": "address"
        },
        {
          "indexed": false,
          "internalType": "uint256",
          "name": "value",
          "type": "uint256"
        }
      ],
      "name": "Transfer",
      "type": "event"
    },
    {
      "inputs": [],
      "name": "Decimals",
      "outputs": [
        {
          "internalType": "uint256",
          "name": "",
          "type": "uint256"
        }
      ],
      "stateMutability": "view",
      "type": "function"
    },
    {
      "inputs": [],
      "name": "Name",
      "outputs": [
        {
          "internalType": "string",
          "name": "",
          "type": "string"
        }
      ],
      "stateMutability": "view",
      "type": "function"
    },
    {
      "inputs": [],
      "name": "Owner",
      "outputs": [
        {
          "internalType": "address",
          "name": "",
          "type": "address"
        }
      ],
      "stateMutability": "view",
      "type": "function"
    },
    {
      "inputs": [],
      "name": "Symbol",
      "outputs": [
        {
          "internalType": "string",
          "name": "",
          "type": "string"
        }
      ],
      "stateMutability": "view",
      "type": "function"
    },
    {
      "inputs": [],
      "name": "TotalSupply",
      "outputs": [
        {
          "internalType": "uint256",
          "name": "",
          "type": "uint256"
        }
      ],
      "stateMutability": "view",
      "type": "function"
    },
    {
      "inputs": [
        {
          "internalType": "address",
          "name": "",
          "type": "address"
        }
      ],
      "name": "balance",
      "outputs": [
        {
          "internalType": "uint256",
          "name": "",
          "type": "uint256"
        }
      ],
      "stateMutability": "view",
      "type": "function"
    },
    {
      "inputs": [
        {
          "internalType": "uint256",
          "name": "_value",
          "type": "uint256"
        }
      ],
      "name": "burn",
      "outputs": [],
      "stateMutability": "nonpayable",
      "type": "function"
    },
    {
      "inputs": [
        {
          "internalType": "address",
          "name": "_to",
          "type": "address"
        },
        {
          "internalType": "uint256",
          "name": "_value",
          "type": "uint256"
        }
      ],
      "name": "mint",
      "outputs": [],
      "stateMutability": "nonpayable",
      "type": "function"
    },
    {
      "inputs": [
        {
          "internalType": "uint8",
          "name": "_rewardIndex",
          "type": "uint8"
        }
      ],
      "name": "redeem",
      "outputs": [],
      "stateMutability": "nonpayable",
      "type": "function"
    },
    {
      "inputs": [
        {
          "internalType": "address",
          "name": "_to",
          "type": "address"
        },
        {
          "internalType": "uint256",
          "name": "_value",
          "type": "uint256"
        }
      ],
      "name": "transfer",
      "outputs": [],
      "stateMutability": "nonpayable",
      "type": "function"
    }
  ],
  "bytecode": "0x60806040526040518060400160405280600581526020017f446567656e000000000000000000000000000000000000000000000000000000815250600090816200004a9190620003f0565b506040518060400160405280600381526020017f44474e000000000000000000000000000000000000000000000000000000000081525060019081620000919190620003f0565b506000600255600254600a620000a891906200065a565b611388620000b79190620006ab565b600355348015620000c757600080fd5b5033600460006101000a81548173ffffffffffffffffffffffffffffffffffffffff021916908373ffffffffffffffffffffffffffffffffffffffff160217905550600060056000600460009054906101000a900473ffffffffffffffffffffffffffffffffffffffff1673ffffffffffffffffffffffffffffffffffffffff1673ffffffffffffffffffffffffffffffffffffffff16815260200190815260200160002081905550620006f6565b600081519050919050565b7f4e487b7100000000000000000000000000000000000000000000000000000000600052604160045260246000fd5b7f4e487b7100000000000000000000000000000000000000000000000000000000600052602260045260246000fd5b60006002820490506001821680620001f857607f821691505b6020821081036200020e576200020d620001b0565b5b50919050565b60008190508160005260206000209050919050565b60006020601f8301049050919050565b600082821b905092915050565b600060088302620002787fffffffffffffffffffffffffffffffffffffffffffffffffffffffffffffffff8262000239565b62000284868362000239565b95508019841693508086168417925050509392505050565b6000819050919050565b6000819050919050565b6000620002d1620002cb620002c5846200029c565b620002a6565b6200029c565b9050919050565b6000819050919050565b620002ed83620002b0565b62000305620002fc82620002d8565b84845462000246565b825550505050565b600090565b6200031c6200030d565b62000329818484620002e2565b505050565b5b8181101562000351576200034560008262000312565b6001810190506200032f565b5050565b601f821115620003a0576200036a8162000214565b620003758462000229565b8101602085101562000385578190505b6200039d620003948562000229565b8301826200032e565b50505b505050565b600082821c905092915050565b6000620003c560001984600802620003a5565b1980831691505092915050565b6000620003e08383620003b2565b9150826002028217905092915050565b620003fb8262000176565b67ffffffffffffffff81111562000417576200041662000181565b5b620004238254620001df565b6200043082828562000355565b600060209050601f83116001811462000468576000841562000453578287015190505b6200045f8582620003d2565b865550620004cf565b601f198416620004788662000214565b60005b82811015620004a2578489015182556001820191506020850194506020810190506200047b565b86831015620004c25784890151620004be601f891682620003b2565b8355505b6001600288020188555050505b505050505050565b7f4e487b7100000000000000000000000000000000000000000000000000000000600052601160045260246000fd5b60008160011c9050919050565b6000808291508390505b600185111562000565578086048111156200053d576200053c620004d7565b5b60018516156200054d5780820291505b80810290506200055d8562000506565b94506200051d565b94509492505050565b60008262000580576001905062000653565b8162000590576000905062000653565b8160018114620005a95760028114620005b457620005ea565b600191505062000653565b60ff841115620005c957620005c8620004d7565b5b8360020a915084821115620005e357620005e2620004d7565b5b5062000653565b5060208310610133831016604e8410600b8410161715620006245782820a9050838111156200061e576200061d620004d7565b5b62000653565b62000633848484600162000513565b925090508184048111156200064d576200064c620004d7565b5b81810290505b9392505050565b600062000667826200029c565b915062000674836200029c565b9250620006a37fffffffffffffffffffffffffffffffffffffffffffffffffffffffffffffffff84846200056e565b905092915050565b6000620006b8826200029c565b9150620006c5836200029c565b9250828202620006d5816200029c565b91508282048414831517620006ef57620006ee620004d7565b5b5092915050565b61127780620007066000396000f3fe608060405234801561001057600080fd5b506004361061009e5760003560e01c8063a44b47f711610066578063a44b47f714610133578063a9059cbb14610151578063b4a99a4e1461016d578063c6ceb50b1461018b578063e3d670d7146101a95761009e565b80633045aaf3146100a357806332271faf146100c157806340c10f19146100dd57806342966c68146100f95780638052474d14610115575b600080fd5b6100ab6101d9565b6040516100b89190610be1565b60405180910390f35b6100db60048036038101906100d69190610c41565b610267565b005b6100f760048036038101906100f29190610d02565b610583565b005b610113600480360381019061010e9190610d42565b61073a565b005b61011d6108e2565b60405161012a9190610be1565b60405180910390f35b61013b610970565b6040516101489190610d7e565b60405180910390f35b61016b60048036038101906101669190610d02565b610976565b005b610175610b0d565b6040516101829190610da8565b60405180910390f35b610193610b33565b6040516101a09190610d7e565b60405180910390f35b6101c360048036038101906101be9190610dc3565b610b39565b6040516101d09190610d7e565b60405180910390f35b600180546101e690610e1f565b80601f016020809104026020016040519081016040528092919081815260200182805461021290610e1f565b801561025f5780601f106102345761010080835404028352916020019161025f565b820191906000526020600020905b81548152906001019060200180831161024257829003601f168201915b505050505081565b6000606060018360ff16036102d057600254600a6102859190610fb2565b60016102919190610ffd565b91506040518060400160405280600d81526020017f52657669766520506f74696f6e0000000000000000000000000000000000000081525090506103d7565b60028360ff160361033557600254600a6102ea9190610fb2565b60326102f69190610ffd565b91506040518060400160405280600e81526020017f546f74656d206f6620577261746800000000000000000000000000000000000081525090506103d6565b60038360ff160361039a57600254600a61034f9190610fb2565b605061035b9190610ffd565b91506040518060400160405280600d81526020017f426f6f6b206f6620506f7765720000000000000000000000000000000000000081525090506103d5565b6040517f08c379a00000000000000000000000000000000000000000000000000000000081526004016103cc9061108b565b60405180910390fd5b5b5b81600560003373ffffffffffffffffffffffffffffffffffffffff1673ffffffffffffffffffffffffffffffffffffffff168152602001908152602001600020541015610459576040517f08c379a0000000000000000000000000000000000000000000000000000000008152600401610450906110f7565b60405180910390fd5b81600560003373ffffffffffffffffffffffffffffffffffffffff1673ffffffffffffffffffffffffffffffffffffffff16815260200190815260200160002060008282546104a89190611117565b9250508190555081600360008282546104c19190611117565b925050819055503373ffffffffffffffffffffffffffffffffffffffff167f78e6c3f67f57c26578f2487b930b70d844bcc8dd8f4d629fb4af81252ab5aa65838360405161051092919061114b565b60405180910390a2600073ffffffffffffffffffffffffffffffffffffffff163373ffffffffffffffffffffffffffffffffffffffff167fddf252ad1be2c89b69c2b068fc378daa952ba7f163c4a11628f55a4df523b3ef846040516105769190610d7e565b60405180910390a3505050565b600460009054906101000a900473ffffffffffffffffffffffffffffffffffffffff1673ffffffffffffffffffffffffffffffffffffffff163373ffffffffffffffffffffffffffffffffffffffff1614610613576040517f08c379a000000000000000000000000000000000000000000000000000000000815260040161060a906111ed565b60405180910390fd5b8060036000828254610625919061120d565b9250508190555080600560008473ffffffffffffffffffffffffffffffffffffffff1673ffffffffffffffffffffffffffffffffffffffff168152602001908152602001600020600082825461067b919061120d565b925050819055508173ffffffffffffffffffffffffffffffffffffffff167f0f6798a560793a54c3bcfe86a93cde1e73087d944c0ea20544137d4121396885826040516106c89190610d7e565b60405180910390a28173ffffffffffffffffffffffffffffffffffffffff16600073ffffffffffffffffffffffffffffffffffffffff167fddf252ad1be2c89b69c2b068fc378daa952ba7f163c4a11628f55a4df523b3ef8360405161072e9190610d7e565b60405180910390a35050565b80600560003373ffffffffffffffffffffffffffffffffffffffff1673ffffffffffffffffffffffffffffffffffffffff1681526020019081526020016000205410156107bc576040517f08c379a00000000000000000000000000000000000000000000000000000000081526004016107b3906110f7565b60405180910390fd5b80600360008282546107ce9190611117565b9250508190555080600560003373ffffffffffffffffffffffffffffffffffffffff1673ffffffffffffffffffffffffffffffffffffffff16815260200190815260200160002060008282546108249190611117565b925050819055503373ffffffffffffffffffffffffffffffffffffffff167fcc16f5dbb4873280815c1ee09dbd06736cffcc184412cf7a71a0fdb75d397ca5826040516108719190610d7e565b60405180910390a2600073ffffffffffffffffffffffffffffffffffffffff163373ffffffffffffffffffffffffffffffffffffffff167fddf252ad1be2c89b69c2b068fc378daa952ba7f163c4a11628f55a4df523b3ef836040516108d79190610d7e565b60405180910390a350565b600080546108ef90610e1f565b80601f016020809104026020016040519081016040528092919081815260200182805461091b90610e1f565b80156109685780601f1061093d57610100808354040283529160200191610968565b820191906000526020600020905b81548152906001019060200180831161094b57829003601f168201915b505050505081565b60035481565b80600560003373ffffffffffffffffffffffffffffffffffffffff1673ffffffffffffffffffffffffffffffffffffffff1681526020019081526020016000205410156109f8576040517f08c379a00000000000000000000000000000000000000000000000000000000081526004016109ef906110f7565b60405180910390fd5b80600560003373ffffffffffffffffffffffffffffffffffffffff1673ffffffffffffffffffffffffffffffffffffffff1681526020019081526020016000206000828254610a479190611117565b9250508190555080600560008473ffffffffffffffffffffffffffffffffffffffff1673ffffffffffffffffffffffffffffffffffffffff1681526020019081526020016000206000828254610a9d919061120d565b925050819055508173ffffffffffffffffffffffffffffffffffffffff163373ffffffffffffffffffffffffffffffffffffffff167fddf252ad1be2c89b69c2b068fc378daa952ba7f163c4a11628f55a4df523b3ef83604051610b019190610d7e565b60405180910390a35050565b600460009054906101000a900473ffffffffffffffffffffffffffffffffffffffff1681565b60025481565b60056020528060005260406000206000915090505481565b600081519050919050565b600082825260208201905092915050565b60005b83811015610b8b578082015181840152602081019050610b70565b60008484015250505050565b6000601f19601f8301169050919050565b6000610bb382610b51565b610bbd8185610b5c565b9350610bcd818560208601610b6d565b610bd681610b97565b840191505092915050565b60006020820190508181036000830152610bfb8184610ba8565b905092915050565b600080fd5b600060ff82169050919050565b610c1e81610c08565b8114610c2957600080fd5b50565b600081359050610c3b81610c15565b92915050565b600060208284031215610c5757610c56610c03565b5b6000610c6584828501610c2c565b91505092915050565b600073ffffffffffffffffffffffffffffffffffffffff82169050919050565b6000610c9982610c6e565b9050919050565b610ca981610c8e565b8114610cb457600080fd5b50565b600081359050610cc681610ca0565b92915050565b6000819050919050565b610cdf81610ccc565b8114610cea57600080fd5b50565b600081359050610cfc81610cd6565b92915050565b60008060408385031215610d1957610d18610c03565b5b6000610d2785828601610cb7565b9250506020610d3885828601610ced565b9150509250929050565b600060208284031215610d5857610d57610c03565b5b6000610d6684828501610ced565b91505092915050565b610d7881610ccc565b82525050565b6000602082019050610d936000830184610d6f565b92915050565b610da281610c8e565b82525050565b6000602082019050610dbd6000830184610d99565b92915050565b600060208284031215610dd957610dd8610c03565b5b6000610de784828501610cb7565b91505092915050565b7f4e487b7100000000000000000000000000000000000000000000000000000000600052602260045260246000fd5b60006002820490506001821680610e3757607f821691505b602082108103610e4a57610e49610df0565b5b50919050565b7f4e487b7100000000000000000000000000000000000000000000000000000000600052601160045260246000fd5b60008160011c9050919050565b6000808291508390505b6001851115610ed657808604811115610eb257610eb1610e50565b5b6001851615610ec15780820291505b8081029050610ecf85610e7f565b9450610e96565b94509492505050565b600082610eef5760019050610fab565b81610efd5760009050610fab565b8160018114610f135760028114610f1d57610f4c565b6001915050610fab565b60ff841115610f2f57610f2e610e50565b5b8360020a915084821115610f4657610f45610e50565b5b50610fab565b5060208310610133831016604e8410600b8410161715610f815782820a905083811115610f7c57610f7b610e50565b5b610fab565b610f8e8484846001610e8c565b92509050818404811115610fa557610fa4610e50565b5b81810290505b9392505050565b6000610fbd82610ccc565b9150610fc883610ccc565b9250610ff57fffffffffffffffffffffffffffffffffffffffffffffffffffffffffffffffff8484610edf565b905092915050565b600061100882610ccc565b915061101383610ccc565b925082820261102181610ccc565b9150828204841483151761103857611037610e50565b5b5092915050565b7f496e76616c69642072657761726420696e646578000000000000000000000000600082015250565b6000611075601483610b5c565b91506110808261103f565b602082019050919050565b600060208201905081810360008301526110a481611068565b9050919050565b7f496e73756666696369656e742062616c616e6365000000000000000000000000600082015250565b60006110e1601483610b5c565b91506110ec826110ab565b602082019050919050565b60006020820190508181036000830152611110816110d4565b9050919050565b600061112282610ccc565b915061112d83610ccc565b925082820390508181111561114557611144610e50565b5b92915050565b60006040820190506111606000830185610d6f565b81810360208301526111728184610ba8565b90509392505050565b7f54686973206f7065726174696f6e206973207265737472696374656420746f2060008201527f4f574e4552206f6e6c7900000000000000000000000000000000000000000000602082015250565b60006111d7602a83610b5c565b91506111e28261117b565b604082019050919050565b60006020820190508181036000830152611206816111ca565b9050919050565b600061121882610ccc565b915061122383610ccc565b925082820190508082111561123b5761123a610e50565b5b9291505056fea264697066735822122014cb4f8c2b85dfa1fcb5bc0fa1acb7f9196ff7959dc15afbd9bf4779543cb2b964736f6c63430008120033",
  "linkReferences": {},
  "deployedLinkReferences": {}
}