{
  "_format": "hh-sol-artifact-1",
  "contractName": "DegenToken",
  "sourceName": "contracts/DegenToken.sol",
  "abi": [
    {
      "inputs": [],
      "stateMutability": "nonpayable",
      "type": "constructor"
    },
    {
      "anonymous": false,
      "inputs": [
        {
          "indexed": true,
          "internalType": "address",
          "name": "owner",
          "type": "address"
        },
        {
          "indexed": true,
          "internalType": "address",
          "name": "spender",
          "type": "address"
        },
        {
          "indexed": false,
          "internalType": "uint256",
          "name": "value",
          "type": "uint256"
        }
      ],
      "name": "Approval",
      "type": "event"
    },
    {
      "anonymous": false,
      "inputs": [
        {
          "indexed": true,
          "internalType": "address",
          "name": "from",
          "type": "address"
        },
        {
          "indexed": false,
          "internalType": "uint256",
          "name": "value",
          "type": "uint256"
        },
        {
          "indexed": false,
          "internalType": "string",
          "name": "reward",
          "type": "string"
        }
      ],
      "name": "Redeem",
      "type": "event"
    },
    {
      "anonymous": false,
      "inputs": [
        {
          "indexed": true,
          "internalType": "address",
          "name": "from",
          "type": "address"
        },
        {
          "indexed": true,
          "internalType": "address",
          "name": "to",
          "type": "address"
        },
        {
          "indexed": false,
          "internalType": "uint256",
          "name": "value",
          "type": "uint256"
        }
      ],
      "name": "Transfer",
      "type": "event"
    },
    {
      "inputs": [],
      "name": "REWARDS",
      "outputs": [
        {
          "internalType": "string",
          "name": "",
          "type": "string"
        }
      ],
      "stateMutability": "view",
      "type": "function"
    },
    {
      "inputs": [
        {
          "internalType": "address",
          "name": "owner",
          "type": "address"
        },
        {
          "internalType": "address",
          "name": "spender",
          "type": "address"
        }
      ],
      "name": "allowance",
      "outputs": [
        {
          "internalType": "uint256",
          "name": "",
          "type": "uint256"
        }
      ],
      "stateMutability": "view",
      "type": "function"
    },
    {
      "inputs": [
        {
          "internalType": "address",
          "name": "spender",
          "type": "address"
        },
        {
          "internalType": "uint256",
          "name": "amount",
          "type": "uint256"
        }
      ],
      "name": "approve",
      "outputs": [
        {
          "internalType": "bool",
          "name": "",
          "type": "bool"
        }
      ],
      "stateMutability": "nonpayable",
      "type": "function"
    },
    {
      "inputs": [
        {
          "internalType": "address",
          "name": "account",
          "type": "address"
        }
      ],
      "name": "balanceOf",
      "outputs": [
        {
          "internalType": "uint256",
          "name": "",
          "type": "uint256"
        }
      ],
      "stateMutability": "view",
      "type": "function"
    },
    {
      "inputs": [],
      "name": "decimals",
      "outputs": [
        {
          "internalType": "uint8",
          "name": "",
          "type": "uint8"
        }
      ],
      "stateMutability": "view",
      "type": "function"
    },
    {
      "inputs": [
        {
          "internalType": "address",
          "name": "spender",
          "type": "address"
        },
        {
          "internalType": "uint256",
          "name": "subtractedValue",
          "type": "uint256"
        }
      ],
      "name": "decreaseAllowance",
      "outputs": [
        {
          "internalType": "bool",
          "name": "",
          "type": "bool"
        }
      ],
      "stateMutability": "nonpayable",
      "type": "function"
    },
    {
      "inputs": [
        {
          "internalType": "address",
          "name": "_user",
          "type": "address"
        }
      ],
      "name": "getRedeemedItems",
      "outputs": [
        {
          "internalType": "string[]",
          "name": "",
          "type": "string[]"
        }
      ],
      "stateMutability": "view",
      "type": "function"
    },
    {
      "inputs": [
        {
          "internalType": "address",
          "name": "spender",
          "type": "address"
        },
        {
          "internalType": "uint256",
          "name": "addedValue",
          "type": "uint256"
        }
      ],
      "name": "increaseAllowance",
      "outputs": [
        {
          "internalType": "bool",
          "name": "",
          "type": "bool"
        }
      ],
      "stateMutability": "nonpayable",
      "type": "function"
    },
    {
      "inputs": [
        {
          "internalType": "address",
          "name": "_to",
          "type": "address"
        },
        {
          "internalType": "uint256",
          "name": "_value",
          "type": "uint256"
        }
      ],
      "name": "mint",
      "outputs": [],
      "stateMutability": "nonpayable",
      "type": "function"
    },
    {
      "inputs": [],
      "name": "name",
      "outputs": [
        {
          "internalType": "string",
          "name": "",
          "type": "string"
        }
      ],
      "stateMutability": "view",
      "type": "function"
    },
    {
      "inputs": [],
      "name": "owner",
      "outputs": [
        {
          "internalType": "address",
          "name": "",
          "type": "address"
        }
      ],
      "stateMutability": "view",
      "type": "function"
    },
    {
      "inputs": [
        {
          "internalType": "uint8",
          "name": "_rewardIndex",
          "type": "uint8"
        }
      ],
      "name": "redeem",
      "outputs": [
        {
          "internalType": "uint256",
          "name": "",
          "type": "uint256"
        }
      ],
      "stateMutability": "nonpayable",
      "type": "function"
    },
    {
      "inputs": [],
      "name": "symbol",
      "outputs": [
        {
          "internalType": "string",
          "name": "",
          "type": "string"
        }
      ],
      "stateMutability": "view",
      "type": "function"
    },
    {
      "inputs": [],
      "name": "totalSupply",
      "outputs": [
        {
          "internalType": "uint256",
          "name": "",
          "type": "uint256"
        }
      ],
      "stateMutability": "view",
      "type": "function"
    },
    {
      "inputs": [
        {
          "internalType": "address",
          "name": "to",
          "type": "address"
        },
        {
          "internalType": "uint256",
          "name": "amount",
          "type": "uint256"
        }
      ],
      "name": "transfer",
      "outputs": [
        {
          "internalType": "bool",
          "name": "",
          "type": "bool"
        }
      ],
      "stateMutability": "nonpayable",
      "type": "function"
    },
    {
      "inputs": [
        {
          "internalType": "address",
          "name": "from",
          "type": "address"
        },
        {
          "internalType": "address",
          "name": "to",
          "type": "address"
        },
        {
          "internalType": "uint256",
          "name": "amount",
          "type": "uint256"
        }
      ],
      "name": "transferFrom",
      "outputs": [
        {
          "internalType": "bool",
          "name": "",
          "type": "bool"
        }
      ],
      "stateMutability": "nonpayable",
      "type": "function"
    }
  ],
  "bytecode": "0x60806040523480156200001157600080fd5b506040518060400160405280600581526020017f446567656e0000000000000000000000000000000000000000000000000000008152506040518060400160405280600381526020017f44474e000000000000000000000000000000000000000000000000000000000081525081600390816200008f9190620004ef565b508060049081620000a19190620004ef565b505050620000b7336000620000fe60201b60201c565b33600560006101000a81548173ffffffffffffffffffffffffffffffffffffffff021916908373ffffffffffffffffffffffffffffffffffffffff160217905550620006f1565b600073ffffffffffffffffffffffffffffffffffffffff168273ffffffffffffffffffffffffffffffffffffffff160362000170576040517f08c379a0000000000000000000000000000000000000000000000000000000008152600401620001679062000637565b60405180910390fd5b62000184600083836200026b60201b60201c565b806002600082825462000198919062000688565b92505081905550806000808473ffffffffffffffffffffffffffffffffffffffff1673ffffffffffffffffffffffffffffffffffffffff168152602001908152602001600020600082825401925050819055508173ffffffffffffffffffffffffffffffffffffffff16600073ffffffffffffffffffffffffffffffffffffffff167fddf252ad1be2c89b69c2b068fc378daa952ba7f163c4a11628f55a4df523b3ef836040516200024b9190620006d4565b60405180910390a362000267600083836200027060201b60201c565b5050565b505050565b505050565b600081519050919050565b7f4e487b7100000000000000000000000000000000000000000000000000000000600052604160045260246000fd5b7f4e487b7100000000000000000000000000000000000000000000000000000000600052602260045260246000fd5b60006002820490506001821680620002f757607f821691505b6020821081036200030d576200030c620002af565b5b50919050565b60008190508160005260206000209050919050565b60006020601f8301049050919050565b600082821b905092915050565b600060088302620003777fffffffffffffffffffffffffffffffffffffffffffffffffffffffffffffffff8262000338565b62000383868362000338565b95508019841693508086168417925050509392505050565b6000819050919050565b6000819050919050565b6000620003d0620003ca620003c4846200039b565b620003a5565b6200039b565b9050919050565b6000819050919050565b620003ec83620003af565b62000404620003fb82620003d7565b84845462000345565b825550505050565b600090565b6200041b6200040c565b62000428818484620003e1565b505050565b5b8181101562000450576200044460008262000411565b6001810190506200042e565b5050565b601f8211156200049f57620004698162000313565b620004748462000328565b8101602085101562000484578190505b6200049c620004938562000328565b8301826200042d565b50505b505050565b600082821c905092915050565b6000620004c460001984600802620004a4565b1980831691505092915050565b6000620004df8383620004b1565b9150826002028217905092915050565b620004fa8262000275565b67ffffffffffffffff81111562000516576200051562000280565b5b620005228254620002de565b6200052f82828562000454565b600060209050601f83116001811462000567576000841562000552578287015190505b6200055e8582620004d1565b865550620005ce565b601f198416620005778662000313565b60005b82811015620005a1578489015182556001820191506020850194506020810190506200057a565b86831015620005c15784890151620005bd601f891682620004b1565b8355505b6001600288020188555050505b505050505050565b600082825260208201905092915050565b7f45524332303a206d696e7420746f20746865207a65726f206164647265737300600082015250565b60006200061f601f83620005d6565b91506200062c82620005e7565b602082019050919050565b60006020820190508181036000830152620006528162000610565b9050919050565b7f4e487b7100000000000000000000000000000000000000000000000000000000600052601160045260246000fd5b600062000695826200039b565b9150620006a2836200039b565b9250828201905080821115620006bd57620006bc62000659565b5b92915050565b620006ce816200039b565b82525050565b6000602082019050620006eb6000830184620006c3565b92915050565b61230480620007016000396000f3fe608060405234801561001057600080fd5b50600436106101005760003560e01c806370a0823111610097578063a9059cbb11610066578063a9059cbb146102d7578063c0034e0c14610307578063dd62ed3e14610325578063f8f4b5741461035557610100565b806370a082311461023b5780638da5cb5b1461026b57806395d89b4114610289578063a457c2d7146102a757610100565b8063313ce567116100d3578063313ce567146101a157806332271faf146101bf57806339509351146101ef57806340c10f191461021f57610100565b806306fdde0314610105578063095ea7b31461012357806318160ddd1461015357806323b872dd14610171575b600080fd5b61010d610385565b60405161011a9190611413565b60405180910390f35b61013d600480360381019061013891906114ce565b610417565b60405161014a9190611529565b60405180910390f35b61015b61043a565b6040516101689190611553565b60405180910390f35b61018b6004803603810190610186919061156e565b610444565b6040516101989190611529565b60405180910390f35b6101a9610473565b6040516101b691906115dd565b60405180910390f35b6101d960048036038101906101d49190611624565b61047c565b6040516101e69190611553565b60405180910390f35b610209600480360381019061020491906114ce565b610759565b6040516102169190611529565b60405180910390f35b610239600480360381019061023491906114ce565b610790565b005b61025560048036038101906102509190611651565b61082e565b6040516102629190611553565b60405180910390f35b610273610876565b604051610280919061168d565b60405180910390f35b61029161089c565b60405161029e9190611413565b60405180910390f35b6102c160048036038101906102bc91906114ce565b61092e565b6040516102ce9190611529565b60405180910390f35b6102f160048036038101906102ec91906114ce565b6109a5565b6040516102fe9190611529565b60405180910390f35b61030f6109c8565b60405161031c9190611413565b60405180910390f35b61033f600480360381019061033a91906116a8565b6109e4565b60405161034c9190611553565b60405180910390f35b61036f600480360381019061036a9190611651565b610a6b565b60405161037c91906117f4565b60405180910390f35b60606003805461039490611845565b80601f01602080910402602001604051908101604052809291908181526020018280546103c090611845565b801561040d5780601f106103e25761010080835404028352916020019161040d565b820191906000526020600020905b8154815290600101906020018083116103f057829003601f168201915b5050505050905090565b600080610422610b83565b905061042f818585610b8b565b600191505092915050565b6000600254905090565b60008061044f610b83565b905061045c858285610d54565b610467858585610de0565b60019150509392505050565b60006012905090565b600080606060018460ff16036104cd57600191506040518060400160405280600d81526020017f52657669766520506f74696f6e0000000000000000000000000000000000000081525090506105a2565b60028460ff160361051957603291506040518060400160405280600e81526020017f546f74656d206f6620577261746800000000000000000000000000000000000081525090506105a1565b60038460ff160361056557605091506040518060400160405280600d81526020017f426f6f6b206f6620506f7765720000000000000000000000000000000000000081525090506105a0565b6040517f08c379a0000000000000000000000000000000000000000000000000000000008152600401610597906118c2565b60405180910390fd5b5b5b816105ac3361082e565b10156105ed576040517f08c379a00000000000000000000000000000000000000000000000000000000081526004016105e49061192e565b60405180910390fd5b6105f73383611056565b600660003373ffffffffffffffffffffffffffffffffffffffff1673ffffffffffffffffffffffffffffffffffffffff168152602001908152602001600020819080600181540180825580915050600190039060005260206000200160009091909190915090816106689190611b29565b506001600760003373ffffffffffffffffffffffffffffffffffffffff1673ffffffffffffffffffffffffffffffffffffffff16815260200190815260200160002060008282546106b99190611c2a565b925050819055503373ffffffffffffffffffffffffffffffffffffffff167f78e6c3f67f57c26578f2487b930b70d844bcc8dd8f4d629fb4af81252ab5aa658383604051610708929190611c5e565b60405180910390a2600760003373ffffffffffffffffffffffffffffffffffffffff1673ffffffffffffffffffffffffffffffffffffffff1681526020019081526020016000205492505050919050565b600080610764610b83565b905061078581858561077685896109e4565b6107809190611c2a565b610b8b565b600191505092915050565b600560009054906101000a900473ffffffffffffffffffffffffffffffffffffffff1673ffffffffffffffffffffffffffffffffffffffff163373ffffffffffffffffffffffffffffffffffffffff1614610820576040517f08c379a000000000000000000000000000000000000000000000000000000000815260040161081790611d00565b60405180910390fd5b61082a8282611223565b5050565b60008060008373ffffffffffffffffffffffffffffffffffffffff1673ffffffffffffffffffffffffffffffffffffffff168152602001908152602001600020549050919050565b600560009054906101000a900473ffffffffffffffffffffffffffffffffffffffff1681565b6060600480546108ab90611845565b80601f01602080910402602001604051908101604052809291908181526020018280546108d790611845565b80156109245780601f106108f957610100808354040283529160200191610924565b820191906000526020600020905b81548152906001019060200180831161090757829003601f168201915b5050505050905090565b600080610939610b83565b9050600061094782866109e4565b90508381101561098c576040517f08c379a000000000000000000000000000000000000000000000000000000000815260040161098390611d92565b60405180910390fd5b6109998286868403610b8b565b60019250505092915050565b6000806109b0610b83565b90506109bd818585610de0565b600191505092915050565b6040518060800160405280604681526020016122896046913981565b6000600160008473ffffffffffffffffffffffffffffffffffffffff1673ffffffffffffffffffffffffffffffffffffffff16815260200190815260200160002060008373ffffffffffffffffffffffffffffffffffffffff1673ffffffffffffffffffffffffffffffffffffffff16815260200190815260200160002054905092915050565b6060600660008373ffffffffffffffffffffffffffffffffffffffff1673ffffffffffffffffffffffffffffffffffffffff168152602001908152602001600020805480602002602001604051908101604052809291908181526020016000905b82821015610b78578382906000526020600020018054610aeb90611845565b80601f0160208091040260200160405190810160405280929190818152602001828054610b1790611845565b8015610b645780601f10610b3957610100808354040283529160200191610b64565b820191906000526020600020905b815481529060010190602001808311610b4757829003601f168201915b505050505081526020019060010190610acc565b505050509050919050565b600033905090565b600073ffffffffffffffffffffffffffffffffffffffff168373ffffffffffffffffffffffffffffffffffffffff1603610bfa576040517f08c379a0000000000000000000000000000000000000000000000000000000008152600401610bf190611e24565b60405180910390fd5b600073ffffffffffffffffffffffffffffffffffffffff168273ffffffffffffffffffffffffffffffffffffffff1603610c69576040517f08c379a0000000000000000000000000000000000000000000000000000000008152600401610c6090611eb6565b60405180910390fd5b80600160008573ffffffffffffffffffffffffffffffffffffffff1673ffffffffffffffffffffffffffffffffffffffff16815260200190815260200160002060008473ffffffffffffffffffffffffffffffffffffffff1673ffffffffffffffffffffffffffffffffffffffff168152602001908152602001600020819055508173ffffffffffffffffffffffffffffffffffffffff168373ffffffffffffffffffffffffffffffffffffffff167f8c5be1e5ebec7d5bd14f71427d1e84f3dd0314c0f7b2291e5b200ac8c7c3b92583604051610d479190611553565b60405180910390a3505050565b6000610d6084846109e4565b90507fffffffffffffffffffffffffffffffffffffffffffffffffffffffffffffffff8114610dda5781811015610dcc576040517f08c379a0000000000000000000000000000000000000000000000000000000008152600401610dc390611f22565b60405180910390fd5b610dd98484848403610b8b565b5b50505050565b600073ffffffffffffffffffffffffffffffffffffffff168373ffffffffffffffffffffffffffffffffffffffff1603610e4f576040517f08c379a0000000000000000000000000000000000000000000000000000000008152600401610e4690611fb4565b60405180910390fd5b600073ffffffffffffffffffffffffffffffffffffffff168273ffffffffffffffffffffffffffffffffffffffff1603610ebe576040517f08c379a0000000000000000000000000000000000000000000000000000000008152600401610eb590612046565b60405180910390fd5b610ec9838383611379565b60008060008573ffffffffffffffffffffffffffffffffffffffff1673ffffffffffffffffffffffffffffffffffffffff16815260200190815260200160002054905081811015610f4f576040517f08c379a0000000000000000000000000000000000000000000000000000000008152600401610f46906120d8565b60405180910390fd5b8181036000808673ffffffffffffffffffffffffffffffffffffffff1673ffffffffffffffffffffffffffffffffffffffff16815260200190815260200160002081905550816000808573ffffffffffffffffffffffffffffffffffffffff1673ffffffffffffffffffffffffffffffffffffffff168152602001908152602001600020600082825401925050819055508273ffffffffffffffffffffffffffffffffffffffff168473ffffffffffffffffffffffffffffffffffffffff167fddf252ad1be2c89b69c2b068fc378daa952ba7f163c4a11628f55a4df523b3ef8460405161103d9190611553565b60405180910390a361105084848461137e565b50505050565b600073ffffffffffffffffffffffffffffffffffffffff168273ffffffffffffffffffffffffffffffffffffffff16036110c5576040517f08c379a00000000000000000000000000000000000000000000000000000000081526004016110bc9061216a565b60405180910390fd5b6110d182600083611379565b60008060008473ffffffffffffffffffffffffffffffffffffffff1673ffffffffffffffffffffffffffffffffffffffff16815260200190815260200160002054905081811015611157576040517f08c379a000000000000000000000000000000000000000000000000000000000815260040161114e906121fc565b60405180910390fd5b8181036000808573ffffffffffffffffffffffffffffffffffffffff1673ffffffffffffffffffffffffffffffffffffffff1681526020019081526020016000208190555081600260008282540392505081905550600073ffffffffffffffffffffffffffffffffffffffff168373ffffffffffffffffffffffffffffffffffffffff167fddf252ad1be2c89b69c2b068fc378daa952ba7f163c4a11628f55a4df523b3ef8460405161120a9190611553565b60405180910390a361121e8360008461137e565b505050565b600073ffffffffffffffffffffffffffffffffffffffff168273ffffffffffffffffffffffffffffffffffffffff1603611292576040517f08c379a000000000000000000000000000000000000000000000000000000000815260040161128990612268565b60405180910390fd5b61129e60008383611379565b80600260008282546112b09190611c2a565b92505081905550806000808473ffffffffffffffffffffffffffffffffffffffff1673ffffffffffffffffffffffffffffffffffffffff168152602001908152602001600020600082825401925050819055508173ffffffffffffffffffffffffffffffffffffffff16600073ffffffffffffffffffffffffffffffffffffffff167fddf252ad1be2c89b69c2b068fc378daa952ba7f163c4a11628f55a4df523b3ef836040516113619190611553565b60405180910390a36113756000838361137e565b5050565b505050565b505050565b600081519050919050565b600082825260208201905092915050565b60005b838110156113bd5780820151818401526020810190506113a2565b60008484015250505050565b6000601f19601f8301169050919050565b60006113e582611383565b6113ef818561138e565b93506113ff81856020860161139f565b611408816113c9565b840191505092915050565b6000602082019050818103600083015261142d81846113da565b905092915050565b600080fd5b600073ffffffffffffffffffffffffffffffffffffffff82169050919050565b60006114658261143a565b9050919050565b6114758161145a565b811461148057600080fd5b50565b6000813590506114928161146c565b92915050565b6000819050919050565b6114ab81611498565b81146114b657600080fd5b50565b6000813590506114c8816114a2565b92915050565b600080604083850312156114e5576114e4611435565b5b60006114f385828601611483565b9250506020611504858286016114b9565b9150509250929050565b60008115159050919050565b6115238161150e565b82525050565b600060208201905061153e600083018461151a565b92915050565b61154d81611498565b82525050565b60006020820190506115686000830184611544565b92915050565b60008060006060848603121561158757611586611435565b5b600061159586828701611483565b93505060206115a686828701611483565b92505060406115b7868287016114b9565b9150509250925092565b600060ff82169050919050565b6115d7816115c1565b82525050565b60006020820190506115f260008301846115ce565b92915050565b611601816115c1565b811461160c57600080fd5b50565b60008135905061161e816115f8565b92915050565b60006020828403121561163a57611639611435565b5b60006116488482850161160f565b91505092915050565b60006020828403121561166757611666611435565b5b600061167584828501611483565b91505092915050565b6116878161145a565b82525050565b60006020820190506116a2600083018461167e565b92915050565b600080604083850312156116bf576116be611435565b5b60006116cd85828601611483565b92505060206116de85828601611483565b9150509250929050565b600081519050919050565b600082825260208201905092915050565b6000819050602082019050919050565b600082825260208201905092915050565b600061173082611383565b61173a8185611714565b935061174a81856020860161139f565b611753816113c9565b840191505092915050565b600061176a8383611725565b905092915050565b6000602082019050919050565b600061178a826116e8565b61179481856116f3565b9350836020820285016117a685611704565b8060005b858110156117e257848403895281516117c3858261175e565b94506117ce83611772565b925060208a019950506001810190506117aa565b50829750879550505050505092915050565b6000602082019050818103600083015261180e818461177f565b905092915050565b7f4e487b7100000000000000000000000000000000000000000000000000000000600052602260045260246000fd5b6000600282049050600182168061185d57607f821691505b6020821081036118705761186f611816565b5b50919050565b7f496e76616c69642072657761726420696e646578000000000000000000000000600082015250565b60006118ac60148361138e565b91506118b782611876565b602082019050919050565b600060208201905081810360008301526118db8161189f565b9050919050565b7f496e73756666696369656e742062616c616e6365000000000000000000000000600082015250565b600061191860148361138e565b9150611923826118e2565b602082019050919050565b600060208201905081810360008301526119478161190b565b9050919050565b7f4e487b7100000000000000000000000000000000000000000000000000000000600052604160045260246000fd5b60008190508160005260206000209050919050565b60006020601f8301049050919050565b600082821b905092915050565b6000600883026119df7fffffffffffffffffffffffffffffffffffffffffffffffffffffffffffffffff826119a2565b6119e986836119a2565b95508019841693508086168417925050509392505050565b6000819050919050565b6000611a26611a21611a1c84611498565b611a01565b611498565b9050919050565b6000819050919050565b611a4083611a0b565b611a54611a4c82611a2d565b8484546119af565b825550505050565b600090565b611a69611a5c565b611a74818484611a37565b505050565b5b81811015611a9857611a8d600082611a61565b600181019050611a7a565b5050565b601f821115611add57611aae8161197d565b611ab784611992565b81016020851015611ac6578190505b611ada611ad285611992565b830182611a79565b50505b505050565b600082821c905092915050565b6000611b0060001984600802611ae2565b1980831691505092915050565b6000611b198383611aef565b9150826002028217905092915050565b611b3282611383565b67ffffffffffffffff811115611b4b57611b4a61194e565b5b611b558254611845565b611b60828285611a9c565b600060209050601f831160018114611b935760008415611b81578287015190505b611b8b8582611b0d565b865550611bf3565b601f198416611ba18661197d565b60005b82811015611bc957848901518255600182019150602085019450602081019050611ba4565b86831015611be65784890151611be2601f891682611aef565b8355505b6001600288020188555050505b505050505050565b7f4e487b7100000000000000000000000000000000000000000000000000000000600052601160045260246000fd5b6000611c3582611498565b9150611c4083611498565b9250828201905080821115611c5857611c57611bfb565b5b92915050565b6000604082019050611c736000830185611544565b8181036020830152611c8581846113da565b90509392505050565b7f54686973206f7065726174696f6e206973207265737472696374656420746f2060008201527f746865206f776e6572206f6e6c79000000000000000000000000000000000000602082015250565b6000611cea602e8361138e565b9150611cf582611c8e565b604082019050919050565b60006020820190508181036000830152611d1981611cdd565b9050919050565b7f45524332303a2064656372656173656420616c6c6f77616e63652062656c6f7760008201527f207a65726f000000000000000000000000000000000000000000000000000000602082015250565b6000611d7c60258361138e565b9150611d8782611d20565b604082019050919050565b60006020820190508181036000830152611dab81611d6f565b9050919050565b7f45524332303a20617070726f76652066726f6d20746865207a65726f2061646460008201527f7265737300000000000000000000000000000000000000000000000000000000602082015250565b6000611e0e60248361138e565b9150611e1982611db2565b604082019050919050565b60006020820190508181036000830152611e3d81611e01565b9050919050565b7f45524332303a20617070726f766520746f20746865207a65726f20616464726560008201527f7373000000000000000000000000000000000000000000000000000000000000602082015250565b6000611ea060228361138e565b9150611eab82611e44565b604082019050919050565b60006020820190508181036000830152611ecf81611e93565b9050919050565b7f45524332303a20696e73756666696369656e7420616c6c6f77616e6365000000600082015250565b6000611f0c601d8361138e565b9150611f1782611ed6565b602082019050919050565b60006020820190508181036000830152611f3b81611eff565b9050919050565b7f45524332303a207472616e736665722066726f6d20746865207a65726f20616460008201527f6472657373000000000000000000000000000000000000000000000000000000602082015250565b6000611f9e60258361138e565b9150611fa982611f42565b604082019050919050565b60006020820190508181036000830152611fcd81611f91565b9050919050565b7f45524332303a207472616e7366657220746f20746865207a65726f206164647260008201527f6573730000000000000000000000000000000000000000000000000000000000602082015250565b600061203060238361138e565b915061203b82611fd4565b604082019050919050565b6000602082019050818103600083015261205f81612023565b9050919050565b7f45524332303a207472616e7366657220616d6f756e742065786365656473206260008201527f616c616e63650000000000000000000000000000000000000000000000000000602082015250565b60006120c260268361138e565b91506120cd82612066565b604082019050919050565b600060208201905081810360008301526120f1816120b5565b9050919050565b7f45524332303a206275726e2066726f6d20746865207a65726f2061646472657360008201527f7300000000000000000000000000000000000000000000000000000000000000602082015250565b600061215460218361138e565b915061215f826120f8565b604082019050919050565b6000602082019050818103600083015261218381612147565b9050919050565b7f45524332303a206275726e20616d6f756e7420657863656564732062616c616e60008201527f6365000000000000000000000000000000000000000000000000000000000000602082015250565b60006121e660228361138e565b91506121f18261218a565b604082019050919050565b60006020820190508181036000830152612215816121d9565b9050919050565b7f45524332303a206d696e7420746f20746865207a65726f206164647265737300600082015250565b6000612252601f8361138e565b915061225d8261221c565b602082019050919050565b6000602082019050818103600083015261228181612245565b905091905056fe52657669766520506f74696f6e2028312044474e292c20546f74656d206f66205772617468202835302044474e292c20426f6f6b206f6620506f776572202838302044474e29a26469706673582212202f0267049d987cbcb87664b1e1824f22656f48fbe19ec803dfdd1bf4d11e807764736f6c63430008120033",
  "linkReferences": {},
  "deployedLinkReferences": {}
}