{
  "_format": "hh-sol-artifact-1",
  "contractName": "DegenToken",
  "sourceName": "contracts/DegenToken.sol",
  "abi": [
    {
      "inputs": [],
      "stateMutability": "nonpayable",
      "type": "constructor"
    },
    {
      "anonymous": false,
      "inputs": [
        {
          "indexed": true,
          "internalType": "address",
          "name": "from",
          "type": "address"
        },
        {
          "indexed": false,
          "internalType": "uint256",
          "name": "value",
          "type": "uint256"
        }
      ],
      "name": "Burn",
      "type": "event"
    },
    {
      "anonymous": false,
      "inputs": [
        {
          "indexed": true,
          "internalType": "address",
          "name": "to",
          "type": "address"
        },
        {
          "indexed": false,
          "internalType": "uint256",
          "name": "value",
          "type": "uint256"
        }
      ],
      "name": "Mint",
      "type": "event"
    },
    {
      "anonymous": false,
      "inputs": [
        {
          "indexed": true,
          "internalType": "address",
          "name": "from",
          "type": "address"
        },
        {
          "indexed": false,
          "internalType": "uint256",
          "name": "value",
          "type": "uint256"
        },
        {
          "indexed": false,
          "internalType": "string",
          "name": "reward",
          "type": "string"
        }
      ],
      "name": "Redeem",
      "type": "event"
    },
    {
      "anonymous": false,
      "inputs": [
        {
          "indexed": true,
          "internalType": "address",
          "name": "from",
          "type": "address"
        },
        {
          "indexed": true,
          "internalType": "address",
          "name": "to",
          "type": "address"
        },
        {
          "indexed": false,
          "internalType": "uint256",
          "name": "value",
          "type": "uint256"
        }
      ],
      "name": "Transfer",
      "type": "event"
    },
    {
      "inputs": [],
      "name": "Decimals",
      "outputs": [
        {
          "internalType": "uint256",
          "name": "",
          "type": "uint256"
        }
      ],
      "stateMutability": "view",
      "type": "function"
    },
    {
      "inputs": [],
      "name": "Name",
      "outputs": [
        {
          "internalType": "string",
          "name": "",
          "type": "string"
        }
      ],
      "stateMutability": "view",
      "type": "function"
    },
    {
      "inputs": [],
      "name": "Owner",
      "outputs": [
        {
          "internalType": "address",
          "name": "",
          "type": "address"
        }
      ],
      "stateMutability": "view",
      "type": "function"
    },
    {
      "inputs": [],
      "name": "Rewards",
      "outputs": [
        {
          "internalType": "string",
          "name": "",
          "type": "string"
        }
      ],
      "stateMutability": "view",
      "type": "function"
    },
    {
      "inputs": [],
      "name": "Symbol",
      "outputs": [
        {
          "internalType": "string",
          "name": "",
          "type": "string"
        }
      ],
      "stateMutability": "view",
      "type": "function"
    },
    {
      "inputs": [],
      "name": "TotalSupply",
      "outputs": [
        {
          "internalType": "uint256",
          "name": "",
          "type": "uint256"
        }
      ],
      "stateMutability": "view",
      "type": "function"
    },
    {
      "inputs": [
        {
          "internalType": "address",
          "name": "",
          "type": "address"
        }
      ],
      "name": "balance",
      "outputs": [
        {
          "internalType": "uint256",
          "name": "",
          "type": "uint256"
        }
      ],
      "stateMutability": "view",
      "type": "function"
    },
    {
      "inputs": [
        {
          "internalType": "uint256",
          "name": "_value",
          "type": "uint256"
        }
      ],
      "name": "burn",
      "outputs": [],
      "stateMutability": "nonpayable",
      "type": "function"
    },
    {
      "inputs": [
        {
          "internalType": "address",
          "name": "_user",
          "type": "address"
        }
      ],
      "name": "getRedeemedItems",
      "outputs": [
        {
          "internalType": "string[]",
          "name": "",
          "type": "string[]"
        }
      ],
      "stateMutability": "view",
      "type": "function"
    },
    {
      "inputs": [
        {
          "internalType": "address",
          "name": "_to",
          "type": "address"
        },
        {
          "internalType": "uint256",
          "name": "_value",
          "type": "uint256"
        }
      ],
      "name": "mint",
      "outputs": [],
      "stateMutability": "nonpayable",
      "type": "function"
    },
    {
      "inputs": [
        {
          "internalType": "uint8",
          "name": "_rewardIndex",
          "type": "uint8"
        }
      ],
      "name": "redeem",
      "outputs": [],
      "stateMutability": "nonpayable",
      "type": "function"
    },
    {
      "inputs": [
        {
          "internalType": "address",
          "name": "",
          "type": "address"
        },
        {
          "internalType": "uint256",
          "name": "",
          "type": "uint256"
        }
      ],
      "name": "redeemedItems",
      "outputs": [
        {
          "internalType": "string",
          "name": "",
          "type": "string"
        }
      ],
      "stateMutability": "view",
      "type": "function"
    },
    {
      "inputs": [
        {
          "internalType": "address",
          "name": "_to",
          "type": "address"
        },
        {
          "internalType": "uint256",
          "name": "_value",
          "type": "uint256"
        }
      ],
      "name": "transfer",
      "outputs": [],
      "stateMutability": "nonpayable",
      "type": "function"
    }
  ],
  "bytecode": "0x60806040526040518060400160405280600581526020017f446567656e000000000000000000000000000000000000000000000000000000815250600090816200004a91906200041b565b506040518060400160405280600381526020017f44474e0000000000000000000000000000000000000000000000000000000000815250600190816200009191906200041b565b506000600255600254600a620000a8919062000685565b611388620000b79190620006d6565b600355604051806080016040528060458152602001620021036045913960059081620000e491906200041b565b50348015620000f257600080fd5b5033600460006101000a81548173ffffffffffffffffffffffffffffffffffffffff021916908373ffffffffffffffffffffffffffffffffffffffff160217905550600060066000600460009054906101000a900473ffffffffffffffffffffffffffffffffffffffff1673ffffffffffffffffffffffffffffffffffffffff1673ffffffffffffffffffffffffffffffffffffffff1681526020019081526020016000208190555062000721565b600081519050919050565b7f4e487b7100000000000000000000000000000000000000000000000000000000600052604160045260246000fd5b7f4e487b7100000000000000000000000000000000000000000000000000000000600052602260045260246000fd5b600060028204905060018216806200022357607f821691505b602082108103620002395762000238620001db565b5b50919050565b60008190508160005260206000209050919050565b60006020601f8301049050919050565b600082821b905092915050565b600060088302620002a37fffffffffffffffffffffffffffffffffffffffffffffffffffffffffffffffff8262000264565b620002af868362000264565b95508019841693508086168417925050509392505050565b6000819050919050565b6000819050919050565b6000620002fc620002f6620002f084620002c7565b620002d1565b620002c7565b9050919050565b6000819050919050565b6200031883620002db565b62000330620003278262000303565b84845462000271565b825550505050565b600090565b6200034762000338565b620003548184846200030d565b505050565b5b818110156200037c57620003706000826200033d565b6001810190506200035a565b5050565b601f821115620003cb5762000395816200023f565b620003a08462000254565b81016020851015620003b0578190505b620003c8620003bf8562000254565b83018262000359565b50505b505050565b600082821c905092915050565b6000620003f060001984600802620003d0565b1980831691505092915050565b60006200040b8383620003dd565b9150826002028217905092915050565b6200042682620001a1565b67ffffffffffffffff811115620004425762000441620001ac565b5b6200044e82546200020a565b6200045b82828562000380565b600060209050601f8311600181146200049357600084156200047e578287015190505b6200048a8582620003fd565b865550620004fa565b601f198416620004a3866200023f565b60005b82811015620004cd57848901518255600182019150602085019450602081019050620004a6565b86831015620004ed5784890151620004e9601f891682620003dd565b8355505b6001600288020188555050505b505050505050565b7f4e487b7100000000000000000000000000000000000000000000000000000000600052601160045260246000fd5b60008160011c9050919050565b6000808291508390505b6001851115620005905780860481111562000568576200056762000502565b5b6001851615620005785780820291505b8081029050620005888562000531565b945062000548565b94509492505050565b600082620005ab57600190506200067e565b81620005bb57600090506200067e565b8160018114620005d45760028114620005df5762000615565b60019150506200067e565b60ff841115620005f457620005f362000502565b5b8360020a9150848211156200060e576200060d62000502565b5b506200067e565b5060208310610133831016604e8410600b84101617156200064f5782820a90508381111562000649576200064862000502565b5b6200067e565b6200065e84848460016200053e565b9250905081840481111562000678576200067762000502565b5b81810290505b9392505050565b60006200069282620002c7565b91506200069f83620002c7565b9250620006ce7fffffffffffffffffffffffffffffffffffffffffffffffffffffffffffffffff848462000599565b905092915050565b6000620006e382620002c7565b9150620006f083620002c7565b92508282026200070081620002c7565b915082820484148315176200071a576200071962000502565b5b5092915050565b6119d280620007316000396000f3fe608060405234801561001057600080fd5b50600436106100cf5760003560e01c8063a9059cbb1161008c578063c280895411610066578063c2808954146101ec578063c6ceb50b1461020a578063e3d670d714610228578063f8f4b57414610258576100cf565b8063a9059cbb14610182578063b4a99a4e1461019e578063c00aa3a5146101bc576100cf565b80633045aaf3146100d457806332271faf146100f257806340c10f191461010e57806342966c681461012a5780638052474d14610146578063a44b47f714610164575b600080fd5b6100dc610288565b6040516100e99190610f61565b60405180910390f35b61010c60048036038101906101079190610fc1565b610316565b005b61012860048036038101906101239190611082565b6106a4565b005b610144600480360381019061013f91906110c2565b61085b565b005b61014e610a03565b60405161015b9190610f61565b60405180910390f35b61016c610a91565b60405161017991906110fe565b60405180910390f35b61019c60048036038101906101979190611082565b610a97565b005b6101a6610c2e565b6040516101b39190611128565b60405180910390f35b6101d660048036038101906101d19190611082565b610c54565b6040516101e39190610f61565b60405180910390f35b6101f4610d0d565b6040516102019190610f61565b60405180910390f35b610212610d9b565b60405161021f91906110fe565b60405180910390f35b610242600480360381019061023d9190611143565b610da1565b60405161024f91906110fe565b60405180910390f35b610272600480360381019061026d9190611143565b610db9565b60405161027f919061127c565b60405180910390f35b60018054610295906112cd565b80601f01602080910402602001604051908101604052809291908181526020018280546102c1906112cd565b801561030e5780601f106102e35761010080835404028352916020019161030e565b820191906000526020600020905b8154815290600101906020018083116102f157829003601f168201915b505050505081565b6000606060018360ff160361037f57600254600a6103349190611460565b600161034091906114ab565b91506040518060400160405280600d81526020017f52657669766520506f74696f6e000000000000000000000000000000000000008152509050610486565b60028360ff16036103e457600254600a6103999190611460565b60326103a591906114ab565b91506040518060400160405280600e81526020017f546f74656d206f662057726174680000000000000000000000000000000000008152509050610485565b60038360ff160361044957600254600a6103fe9190611460565b605061040a91906114ab565b91506040518060400160405280600d81526020017f426f6f6b206f6620506f776572000000000000000000000000000000000000008152509050610484565b6040517f08c379a000000000000000000000000000000000000000000000000000000000815260040161047b90611539565b60405180910390fd5b5b5b81600660003373ffffffffffffffffffffffffffffffffffffffff1673ffffffffffffffffffffffffffffffffffffffff168152602001908152602001600020541015610508576040517f08c379a00000000000000000000000000000000000000000000000000000000081526004016104ff906115a5565b60405180910390fd5b81600660003373ffffffffffffffffffffffffffffffffffffffff1673ffffffffffffffffffffffffffffffffffffffff168152602001908152602001600020600082825461055791906115c5565b92505081905550816003600082825461057091906115c5565b92505081905550600760003373ffffffffffffffffffffffffffffffffffffffff1673ffffffffffffffffffffffffffffffffffffffff168152602001908152602001600020819080600181540180825580915050600190039060005260206000200160009091909190915090816105e891906117d4565b503373ffffffffffffffffffffffffffffffffffffffff167f78e6c3f67f57c26578f2487b930b70d844bcc8dd8f4d629fb4af81252ab5aa6583836040516106319291906118a6565b60405180910390a2600073ffffffffffffffffffffffffffffffffffffffff163373ffffffffffffffffffffffffffffffffffffffff167fddf252ad1be2c89b69c2b068fc378daa952ba7f163c4a11628f55a4df523b3ef8460405161069791906110fe565b60405180910390a3505050565b600460009054906101000a900473ffffffffffffffffffffffffffffffffffffffff1673ffffffffffffffffffffffffffffffffffffffff163373ffffffffffffffffffffffffffffffffffffffff1614610734576040517f08c379a000000000000000000000000000000000000000000000000000000000815260040161072b90611948565b60405180910390fd5b80600360008282546107469190611968565b9250508190555080600660008473ffffffffffffffffffffffffffffffffffffffff1673ffffffffffffffffffffffffffffffffffffffff168152602001908152602001600020600082825461079c9190611968565b925050819055508173ffffffffffffffffffffffffffffffffffffffff167f0f6798a560793a54c3bcfe86a93cde1e73087d944c0ea20544137d4121396885826040516107e991906110fe565b60405180910390a28173ffffffffffffffffffffffffffffffffffffffff16600073ffffffffffffffffffffffffffffffffffffffff167fddf252ad1be2c89b69c2b068fc378daa952ba7f163c4a11628f55a4df523b3ef8360405161084f91906110fe565b60405180910390a35050565b80600660003373ffffffffffffffffffffffffffffffffffffffff1673ffffffffffffffffffffffffffffffffffffffff1681526020019081526020016000205410156108dd576040517f08c379a00000000000000000000000000000000000000000000000000000000081526004016108d4906115a5565b60405180910390fd5b80600360008282546108ef91906115c5565b9250508190555080600660003373ffffffffffffffffffffffffffffffffffffffff1673ffffffffffffffffffffffffffffffffffffffff168152602001908152602001600020600082825461094591906115c5565b925050819055503373ffffffffffffffffffffffffffffffffffffffff167fcc16f5dbb4873280815c1ee09dbd06736cffcc184412cf7a71a0fdb75d397ca58260405161099291906110fe565b60405180910390a2600073ffffffffffffffffffffffffffffffffffffffff163373ffffffffffffffffffffffffffffffffffffffff167fddf252ad1be2c89b69c2b068fc378daa952ba7f163c4a11628f55a4df523b3ef836040516109f891906110fe565b60405180910390a350565b60008054610a10906112cd565b80601f0160208091040260200160405190810160405280929190818152602001828054610a3c906112cd565b8015610a895780601f10610a5e57610100808354040283529160200191610a89565b820191906000526020600020905b815481529060010190602001808311610a6c57829003601f168201915b505050505081565b60035481565b80600660003373ffffffffffffffffffffffffffffffffffffffff1673ffffffffffffffffffffffffffffffffffffffff168152602001908152602001600020541015610b19576040517f08c379a0000000000000000000000000000000000000000000000000000000008152600401610b10906115a5565b60405180910390fd5b80600660003373ffffffffffffffffffffffffffffffffffffffff1673ffffffffffffffffffffffffffffffffffffffff1681526020019081526020016000206000828254610b6891906115c5565b9250508190555080600660008473ffffffffffffffffffffffffffffffffffffffff1673ffffffffffffffffffffffffffffffffffffffff1681526020019081526020016000206000828254610bbe9190611968565b925050819055508173ffffffffffffffffffffffffffffffffffffffff163373ffffffffffffffffffffffffffffffffffffffff167fddf252ad1be2c89b69c2b068fc378daa952ba7f163c4a11628f55a4df523b3ef83604051610c2291906110fe565b60405180910390a35050565b600460009054906101000a900473ffffffffffffffffffffffffffffffffffffffff1681565b60076020528160005260406000208181548110610c7057600080fd5b90600052602060002001600091509150508054610c8c906112cd565b80601f0160208091040260200160405190810160405280929190818152602001828054610cb8906112cd565b8015610d055780601f10610cda57610100808354040283529160200191610d05565b820191906000526020600020905b815481529060010190602001808311610ce857829003601f168201915b505050505081565b60058054610d1a906112cd565b80601f0160208091040260200160405190810160405280929190818152602001828054610d46906112cd565b8015610d935780601f10610d6857610100808354040283529160200191610d93565b820191906000526020600020905b815481529060010190602001808311610d7657829003601f168201915b505050505081565b60025481565b60066020528060005260406000206000915090505481565b6060600760008373ffffffffffffffffffffffffffffffffffffffff1673ffffffffffffffffffffffffffffffffffffffff168152602001908152602001600020805480602002602001604051908101604052809291908181526020016000905b82821015610ec6578382906000526020600020018054610e39906112cd565b80601f0160208091040260200160405190810160405280929190818152602001828054610e65906112cd565b8015610eb25780601f10610e8757610100808354040283529160200191610eb2565b820191906000526020600020905b815481529060010190602001808311610e9557829003601f168201915b505050505081526020019060010190610e1a565b505050509050919050565b600081519050919050565b600082825260208201905092915050565b60005b83811015610f0b578082015181840152602081019050610ef0565b60008484015250505050565b6000601f19601f8301169050919050565b6000610f3382610ed1565b610f3d8185610edc565b9350610f4d818560208601610eed565b610f5681610f17565b840191505092915050565b60006020820190508181036000830152610f7b8184610f28565b905092915050565b600080fd5b600060ff82169050919050565b610f9e81610f88565b8114610fa957600080fd5b50565b600081359050610fbb81610f95565b92915050565b600060208284031215610fd757610fd6610f83565b5b6000610fe584828501610fac565b91505092915050565b600073ffffffffffffffffffffffffffffffffffffffff82169050919050565b600061101982610fee565b9050919050565b6110298161100e565b811461103457600080fd5b50565b60008135905061104681611020565b92915050565b6000819050919050565b61105f8161104c565b811461106a57600080fd5b50565b60008135905061107c81611056565b92915050565b6000806040838503121561109957611098610f83565b5b60006110a785828601611037565b92505060206110b88582860161106d565b9150509250929050565b6000602082840312156110d8576110d7610f83565b5b60006110e68482850161106d565b91505092915050565b6110f88161104c565b82525050565b600060208201905061111360008301846110ef565b92915050565b6111228161100e565b82525050565b600060208201905061113d6000830184611119565b92915050565b60006020828403121561115957611158610f83565b5b600061116784828501611037565b91505092915050565b600081519050919050565b600082825260208201905092915050565b6000819050602082019050919050565b600082825260208201905092915050565b60006111b882610ed1565b6111c2818561119c565b93506111d2818560208601610eed565b6111db81610f17565b840191505092915050565b60006111f283836111ad565b905092915050565b6000602082019050919050565b600061121282611170565b61121c818561117b565b93508360208202850161122e8561118c565b8060005b8581101561126a578484038952815161124b85826111e6565b9450611256836111fa565b925060208a01995050600181019050611232565b50829750879550505050505092915050565b600060208201905081810360008301526112968184611207565b905092915050565b7f4e487b7100000000000000000000000000000000000000000000000000000000600052602260045260246000fd5b600060028204905060018216806112e557607f821691505b6020821081036112f8576112f761129e565b5b50919050565b7f4e487b7100000000000000000000000000000000000000000000000000000000600052601160045260246000fd5b60008160011c9050919050565b6000808291508390505b6001851115611384578086048111156113605761135f6112fe565b5b600185161561136f5780820291505b808102905061137d8561132d565b9450611344565b94509492505050565b60008261139d5760019050611459565b816113ab5760009050611459565b81600181146113c157600281146113cb576113fa565b6001915050611459565b60ff8411156113dd576113dc6112fe565b5b8360020a9150848211156113f4576113f36112fe565b5b50611459565b5060208310610133831016604e8410600b841016171561142f5782820a90508381111561142a576114296112fe565b5b611459565b61143c848484600161133a565b92509050818404811115611453576114526112fe565b5b81810290505b9392505050565b600061146b8261104c565b91506114768361104c565b92506114a37fffffffffffffffffffffffffffffffffffffffffffffffffffffffffffffffff848461138d565b905092915050565b60006114b68261104c565b91506114c18361104c565b92508282026114cf8161104c565b915082820484148315176114e6576114e56112fe565b5b5092915050565b7f496e76616c69642072657761726420696e646578000000000000000000000000600082015250565b6000611523601483610edc565b915061152e826114ed565b602082019050919050565b6000602082019050818103600083015261155281611516565b9050919050565b7f496e73756666696369656e742062616c616e6365000000000000000000000000600082015250565b600061158f601483610edc565b915061159a82611559565b602082019050919050565b600060208201905081810360008301526115be81611582565b9050919050565b60006115d08261104c565b91506115db8361104c565b92508282039050818111156115f3576115f26112fe565b5b92915050565b7f4e487b7100000000000000000000000000000000000000000000000000000000600052604160045260246000fd5b60008190508160005260206000209050919050565b60006020601f8301049050919050565b600082821b905092915050565b60006008830261168a7fffffffffffffffffffffffffffffffffffffffffffffffffffffffffffffffff8261164d565b611694868361164d565b95508019841693508086168417925050509392505050565b6000819050919050565b60006116d16116cc6116c78461104c565b6116ac565b61104c565b9050919050565b6000819050919050565b6116eb836116b6565b6116ff6116f7826116d8565b84845461165a565b825550505050565b600090565b611714611707565b61171f8184846116e2565b505050565b5b818110156117435761173860008261170c565b600181019050611725565b5050565b601f8211156117885761175981611628565b6117628461163d565b81016020851015611771578190505b61178561177d8561163d565b830182611724565b50505b505050565b600082821c905092915050565b60006117ab6000198460080261178d565b1980831691505092915050565b60006117c4838361179a565b9150826002028217905092915050565b6117dd82610ed1565b67ffffffffffffffff8111156117f6576117f56115f9565b5b61180082546112cd565b61180b828285611747565b600060209050601f83116001811461183e576000841561182c578287015190505b61183685826117b8565b86555061189e565b601f19841661184c86611628565b60005b828110156118745784890151825560018201915060208501945060208101905061184f565b86831015611891578489015161188d601f89168261179a565b8355505b6001600288020188555050505b505050505050565b60006040820190506118bb60008301856110ef565b81810360208301526118cd8184610f28565b90509392505050565b7f54686973206f7065726174696f6e206973207265737472696374656420746f2060008201527f4f574e4552206f6e6c7900000000000000000000000000000000000000000000602082015250565b6000611932602a83610edc565b915061193d826118d6565b604082019050919050565b6000602082019050818103600083015261196181611925565b9050919050565b60006119738261104c565b915061197e8361104c565b9250828201905080821115611996576119956112fe565b5b9291505056fea26469706673582212203523edad011c565daf4444c14fed59cb88146224ba5452312d5477ae448ca72a64736f6c6343000812003352657669766520506f74696f6e2028312044474e292c20546f74656d206f66205772617468202835302044474e292c20426f6f6b206f6620506f7765722838302044474e29",
  "linkReferences": {},
  "deployedLinkReferences": {}
}