{
  "_format": "hh-sol-artifact-1",
  "contractName": "DegenToken",
  "sourceName": "contracts/DegenToken.sol",
  "abi": [
    {
      "inputs": [],
      "stateMutability": "nonpayable",
      "type": "constructor"
    },
    {
      "anonymous": false,
      "inputs": [
        {
          "indexed": true,
          "internalType": "address",
          "name": "from",
          "type": "address"
        },
        {
          "indexed": false,
          "internalType": "uint256",
          "name": "value",
          "type": "uint256"
        }
      ],
      "name": "Burn",
      "type": "event"
    },
    {
      "anonymous": false,
      "inputs": [
        {
          "indexed": true,
          "internalType": "address",
          "name": "to",
          "type": "address"
        },
        {
          "indexed": false,
          "internalType": "uint256",
          "name": "value",
          "type": "uint256"
        }
      ],
      "name": "Mint",
      "type": "event"
    },
    {
      "anonymous": false,
      "inputs": [
        {
          "indexed": true,
          "internalType": "address",
          "name": "from",
          "type": "address"
        },
        {
          "indexed": false,
          "internalType": "uint256",
          "name": "value",
          "type": "uint256"
        },
        {
          "indexed": false,
          "internalType": "string",
          "name": "reward",
          "type": "string"
        }
      ],
      "name": "Redeem",
      "type": "event"
    },
    {
      "anonymous": false,
      "inputs": [
        {
          "indexed": true,
          "internalType": "address",
          "name": "from",
          "type": "address"
        },
        {
          "indexed": true,
          "internalType": "address",
          "name": "to",
          "type": "address"
        },
        {
          "indexed": false,
          "internalType": "uint256",
          "name": "value",
          "type": "uint256"
        }
      ],
      "name": "Transfer",
      "type": "event"
    },
    {
      "inputs": [],
      "name": "Decimals",
      "outputs": [
        {
          "internalType": "uint256",
          "name": "",
          "type": "uint256"
        }
      ],
      "stateMutability": "view",
      "type": "function"
    },
    {
      "inputs": [],
      "name": "Name",
      "outputs": [
        {
          "internalType": "string",
          "name": "",
          "type": "string"
        }
      ],
      "stateMutability": "view",
      "type": "function"
    },
    {
      "inputs": [],
      "name": "Owner",
      "outputs": [
        {
          "internalType": "address",
          "name": "",
          "type": "address"
        }
      ],
      "stateMutability": "view",
      "type": "function"
    },
    {
      "inputs": [],
      "name": "Rewards",
      "outputs": [
        {
          "internalType": "string",
          "name": "",
          "type": "string"
        }
      ],
      "stateMutability": "view",
      "type": "function"
    },
    {
      "inputs": [],
      "name": "Symbol",
      "outputs": [
        {
          "internalType": "string",
          "name": "",
          "type": "string"
        }
      ],
      "stateMutability": "view",
      "type": "function"
    },
    {
      "inputs": [],
      "name": "TotalSupply",
      "outputs": [
        {
          "internalType": "uint256",
          "name": "",
          "type": "uint256"
        }
      ],
      "stateMutability": "view",
      "type": "function"
    },
    {
      "inputs": [
        {
          "internalType": "address",
          "name": "",
          "type": "address"
        }
      ],
      "name": "balance",
      "outputs": [
        {
          "internalType": "uint256",
          "name": "",
          "type": "uint256"
        }
      ],
      "stateMutability": "view",
      "type": "function"
    },
    {
      "inputs": [
        {
          "internalType": "uint256",
          "name": "_value",
          "type": "uint256"
        }
      ],
      "name": "burn",
      "outputs": [],
      "stateMutability": "nonpayable",
      "type": "function"
    },
    {
      "inputs": [
        {
          "internalType": "address",
          "name": "_to",
          "type": "address"
        },
        {
          "internalType": "uint256",
          "name": "_value",
          "type": "uint256"
        }
      ],
      "name": "mint",
      "outputs": [],
      "stateMutability": "nonpayable",
      "type": "function"
    },
    {
      "inputs": [
        {
          "internalType": "uint8",
          "name": "_rewardIndex",
          "type": "uint8"
        }
      ],
      "name": "redeem",
      "outputs": [],
      "stateMutability": "nonpayable",
      "type": "function"
    },
    {
      "inputs": [
        {
          "internalType": "address",
          "name": "_to",
          "type": "address"
        },
        {
          "internalType": "uint256",
          "name": "_value",
          "type": "uint256"
        }
      ],
      "name": "transfer",
      "outputs": [],
      "stateMutability": "nonpayable",
      "type": "function"
    }
  ],
  "bytecode": "0x60806040526040518060400160405280600581526020017f446567656e000000000000000000000000000000000000000000000000000000815250600090816200004a91906200041b565b506040518060400160405280600381526020017f44474e0000000000000000000000000000000000000000000000000000000000815250600190816200009191906200041b565b506000600255600254600a620000a8919062000685565b611388620000b79190620006d6565b60035560405180608001604052806045815260200162001a5f6045913960059081620000e491906200041b565b50348015620000f257600080fd5b5033600460006101000a81548173ffffffffffffffffffffffffffffffffffffffff021916908373ffffffffffffffffffffffffffffffffffffffff160217905550600060066000600460009054906101000a900473ffffffffffffffffffffffffffffffffffffffff1673ffffffffffffffffffffffffffffffffffffffff1673ffffffffffffffffffffffffffffffffffffffff1681526020019081526020016000208190555062000721565b600081519050919050565b7f4e487b7100000000000000000000000000000000000000000000000000000000600052604160045260246000fd5b7f4e487b7100000000000000000000000000000000000000000000000000000000600052602260045260246000fd5b600060028204905060018216806200022357607f821691505b602082108103620002395762000238620001db565b5b50919050565b60008190508160005260206000209050919050565b60006020601f8301049050919050565b600082821b905092915050565b600060088302620002a37fffffffffffffffffffffffffffffffffffffffffffffffffffffffffffffffff8262000264565b620002af868362000264565b95508019841693508086168417925050509392505050565b6000819050919050565b6000819050919050565b6000620002fc620002f6620002f084620002c7565b620002d1565b620002c7565b9050919050565b6000819050919050565b6200031883620002db565b62000330620003278262000303565b84845462000271565b825550505050565b600090565b6200034762000338565b620003548184846200030d565b505050565b5b818110156200037c57620003706000826200033d565b6001810190506200035a565b5050565b601f821115620003cb5762000395816200023f565b620003a08462000254565b81016020851015620003b0578190505b620003c8620003bf8562000254565b83018262000359565b50505b505050565b600082821c905092915050565b6000620003f060001984600802620003d0565b1980831691505092915050565b60006200040b8383620003dd565b9150826002028217905092915050565b6200042682620001a1565b67ffffffffffffffff811115620004425762000441620001ac565b5b6200044e82546200020a565b6200045b82828562000380565b600060209050601f8311600181146200049357600084156200047e578287015190505b6200048a8582620003fd565b865550620004fa565b601f198416620004a3866200023f565b60005b82811015620004cd57848901518255600182019150602085019450602081019050620004a6565b86831015620004ed5784890151620004e9601f891682620003dd565b8355505b6001600288020188555050505b505050505050565b7f4e487b7100000000000000000000000000000000000000000000000000000000600052601160045260246000fd5b60008160011c9050919050565b6000808291508390505b6001851115620005905780860481111562000568576200056762000502565b5b6001851615620005785780820291505b8081029050620005888562000531565b945062000548565b94509492505050565b600082620005ab57600190506200067e565b81620005bb57600090506200067e565b8160018114620005d45760028114620005df5762000615565b60019150506200067e565b60ff841115620005f457620005f362000502565b5b8360020a9150848211156200060e576200060d62000502565b5b506200067e565b5060208310610133831016604e8410600b84101617156200064f5782820a90508381111562000649576200064862000502565b5b6200067e565b6200065e84848460016200053e565b9250905081840481111562000678576200067762000502565b5b81810290505b9392505050565b60006200069282620002c7565b91506200069f83620002c7565b9250620006ce7fffffffffffffffffffffffffffffffffffffffffffffffffffffffffffffffff848462000599565b905092915050565b6000620006e382620002c7565b9150620006f083620002c7565b92508282026200070081620002c7565b915082820484148315176200071a576200071962000502565b5b5092915050565b61132e80620007316000396000f3fe608060405234801561001057600080fd5b50600436106100a95760003560e01c8063a44b47f711610071578063a44b47f71461013e578063a9059cbb1461015c578063b4a99a4e14610178578063c280895414610196578063c6ceb50b146101b4578063e3d670d7146101d2576100a9565b80633045aaf3146100ae57806332271faf146100cc57806340c10f19146100e857806342966c68146101045780638052474d14610120575b600080fd5b6100b6610202565b6040516100c39190610c98565b60405180910390f35b6100e660048036038101906100e19190610cf8565b610290565b005b61010260048036038101906100fd9190610db9565b6105ac565b005b61011e60048036038101906101199190610df9565b610763565b005b61012861090b565b6040516101359190610c98565b60405180910390f35b610146610999565b6040516101539190610e35565b60405180910390f35b61017660048036038101906101719190610db9565b61099f565b005b610180610b36565b60405161018d9190610e5f565b60405180910390f35b61019e610b5c565b6040516101ab9190610c98565b60405180910390f35b6101bc610bea565b6040516101c99190610e35565b60405180910390f35b6101ec60048036038101906101e79190610e7a565b610bf0565b6040516101f99190610e35565b60405180910390f35b6001805461020f90610ed6565b80601f016020809104026020016040519081016040528092919081815260200182805461023b90610ed6565b80156102885780601f1061025d57610100808354040283529160200191610288565b820191906000526020600020905b81548152906001019060200180831161026b57829003601f168201915b505050505081565b6000606060018360ff16036102f957600254600a6102ae9190611069565b60016102ba91906110b4565b91506040518060400160405280600d81526020017f52657669766520506f74696f6e000000000000000000000000000000000000008152509050610400565b60028360ff160361035e57600254600a6103139190611069565b603261031f91906110b4565b91506040518060400160405280600e81526020017f546f74656d206f6620577261746800000000000000000000000000000000000081525090506103ff565b60038360ff16036103c357600254600a6103789190611069565b605061038491906110b4565b91506040518060400160405280600d81526020017f426f6f6b206f6620506f7765720000000000000000000000000000000000000081525090506103fe565b6040517f08c379a00000000000000000000000000000000000000000000000000000000081526004016103f590611142565b60405180910390fd5b5b5b81600660003373ffffffffffffffffffffffffffffffffffffffff1673ffffffffffffffffffffffffffffffffffffffff168152602001908152602001600020541015610482576040517f08c379a0000000000000000000000000000000000000000000000000000000008152600401610479906111ae565b60405180910390fd5b81600660003373ffffffffffffffffffffffffffffffffffffffff1673ffffffffffffffffffffffffffffffffffffffff16815260200190815260200160002060008282546104d191906111ce565b9250508190555081600360008282546104ea91906111ce565b925050819055503373ffffffffffffffffffffffffffffffffffffffff167f78e6c3f67f57c26578f2487b930b70d844bcc8dd8f4d629fb4af81252ab5aa658383604051610539929190611202565b60405180910390a2600073ffffffffffffffffffffffffffffffffffffffff163373ffffffffffffffffffffffffffffffffffffffff167fddf252ad1be2c89b69c2b068fc378daa952ba7f163c4a11628f55a4df523b3ef8460405161059f9190610e35565b60405180910390a3505050565b600460009054906101000a900473ffffffffffffffffffffffffffffffffffffffff1673ffffffffffffffffffffffffffffffffffffffff163373ffffffffffffffffffffffffffffffffffffffff161461063c576040517f08c379a0000000000000000000000000000000000000000000000000000000008152600401610633906112a4565b60405180910390fd5b806003600082825461064e91906112c4565b9250508190555080600660008473ffffffffffffffffffffffffffffffffffffffff1673ffffffffffffffffffffffffffffffffffffffff16815260200190815260200160002060008282546106a491906112c4565b925050819055508173ffffffffffffffffffffffffffffffffffffffff167f0f6798a560793a54c3bcfe86a93cde1e73087d944c0ea20544137d4121396885826040516106f19190610e35565b60405180910390a28173ffffffffffffffffffffffffffffffffffffffff16600073ffffffffffffffffffffffffffffffffffffffff167fddf252ad1be2c89b69c2b068fc378daa952ba7f163c4a11628f55a4df523b3ef836040516107579190610e35565b60405180910390a35050565b80600660003373ffffffffffffffffffffffffffffffffffffffff1673ffffffffffffffffffffffffffffffffffffffff1681526020019081526020016000205410156107e5576040517f08c379a00000000000000000000000000000000000000000000000000000000081526004016107dc906111ae565b60405180910390fd5b80600360008282546107f791906111ce565b9250508190555080600660003373ffffffffffffffffffffffffffffffffffffffff1673ffffffffffffffffffffffffffffffffffffffff168152602001908152602001600020600082825461084d91906111ce565b925050819055503373ffffffffffffffffffffffffffffffffffffffff167fcc16f5dbb4873280815c1ee09dbd06736cffcc184412cf7a71a0fdb75d397ca58260405161089a9190610e35565b60405180910390a2600073ffffffffffffffffffffffffffffffffffffffff163373ffffffffffffffffffffffffffffffffffffffff167fddf252ad1be2c89b69c2b068fc378daa952ba7f163c4a11628f55a4df523b3ef836040516109009190610e35565b60405180910390a350565b6000805461091890610ed6565b80601f016020809104026020016040519081016040528092919081815260200182805461094490610ed6565b80156109915780601f1061096657610100808354040283529160200191610991565b820191906000526020600020905b81548152906001019060200180831161097457829003601f168201915b505050505081565b60035481565b80600660003373ffffffffffffffffffffffffffffffffffffffff1673ffffffffffffffffffffffffffffffffffffffff168152602001908152602001600020541015610a21576040517f08c379a0000000000000000000000000000000000000000000000000000000008152600401610a18906111ae565b60405180910390fd5b80600660003373ffffffffffffffffffffffffffffffffffffffff1673ffffffffffffffffffffffffffffffffffffffff1681526020019081526020016000206000828254610a7091906111ce565b9250508190555080600660008473ffffffffffffffffffffffffffffffffffffffff1673ffffffffffffffffffffffffffffffffffffffff1681526020019081526020016000206000828254610ac691906112c4565b925050819055508173ffffffffffffffffffffffffffffffffffffffff163373ffffffffffffffffffffffffffffffffffffffff167fddf252ad1be2c89b69c2b068fc378daa952ba7f163c4a11628f55a4df523b3ef83604051610b2a9190610e35565b60405180910390a35050565b600460009054906101000a900473ffffffffffffffffffffffffffffffffffffffff1681565b60058054610b6990610ed6565b80601f0160208091040260200160405190810160405280929190818152602001828054610b9590610ed6565b8015610be25780601f10610bb757610100808354040283529160200191610be2565b820191906000526020600020905b815481529060010190602001808311610bc557829003601f168201915b505050505081565b60025481565b60066020528060005260406000206000915090505481565b600081519050919050565b600082825260208201905092915050565b60005b83811015610c42578082015181840152602081019050610c27565b60008484015250505050565b6000601f19601f8301169050919050565b6000610c6a82610c08565b610c748185610c13565b9350610c84818560208601610c24565b610c8d81610c4e565b840191505092915050565b60006020820190508181036000830152610cb28184610c5f565b905092915050565b600080fd5b600060ff82169050919050565b610cd581610cbf565b8114610ce057600080fd5b50565b600081359050610cf281610ccc565b92915050565b600060208284031215610d0e57610d0d610cba565b5b6000610d1c84828501610ce3565b91505092915050565b600073ffffffffffffffffffffffffffffffffffffffff82169050919050565b6000610d5082610d25565b9050919050565b610d6081610d45565b8114610d6b57600080fd5b50565b600081359050610d7d81610d57565b92915050565b6000819050919050565b610d9681610d83565b8114610da157600080fd5b50565b600081359050610db381610d8d565b92915050565b60008060408385031215610dd057610dcf610cba565b5b6000610dde85828601610d6e565b9250506020610def85828601610da4565b9150509250929050565b600060208284031215610e0f57610e0e610cba565b5b6000610e1d84828501610da4565b91505092915050565b610e2f81610d83565b82525050565b6000602082019050610e4a6000830184610e26565b92915050565b610e5981610d45565b82525050565b6000602082019050610e746000830184610e50565b92915050565b600060208284031215610e9057610e8f610cba565b5b6000610e9e84828501610d6e565b91505092915050565b7f4e487b7100000000000000000000000000000000000000000000000000000000600052602260045260246000fd5b60006002820490506001821680610eee57607f821691505b602082108103610f0157610f00610ea7565b5b50919050565b7f4e487b7100000000000000000000000000000000000000000000000000000000600052601160045260246000fd5b60008160011c9050919050565b6000808291508390505b6001851115610f8d57808604811115610f6957610f68610f07565b5b6001851615610f785780820291505b8081029050610f8685610f36565b9450610f4d565b94509492505050565b600082610fa65760019050611062565b81610fb45760009050611062565b8160018114610fca5760028114610fd457611003565b6001915050611062565b60ff841115610fe657610fe5610f07565b5b8360020a915084821115610ffd57610ffc610f07565b5b50611062565b5060208310610133831016604e8410600b84101617156110385782820a90508381111561103357611032610f07565b5b611062565b6110458484846001610f43565b9250905081840481111561105c5761105b610f07565b5b81810290505b9392505050565b600061107482610d83565b915061107f83610d83565b92506110ac7fffffffffffffffffffffffffffffffffffffffffffffffffffffffffffffffff8484610f96565b905092915050565b60006110bf82610d83565b91506110ca83610d83565b92508282026110d881610d83565b915082820484148315176110ef576110ee610f07565b5b5092915050565b7f496e76616c69642072657761726420696e646578000000000000000000000000600082015250565b600061112c601483610c13565b9150611137826110f6565b602082019050919050565b6000602082019050818103600083015261115b8161111f565b9050919050565b7f496e73756666696369656e742062616c616e6365000000000000000000000000600082015250565b6000611198601483610c13565b91506111a382611162565b602082019050919050565b600060208201905081810360008301526111c78161118b565b9050919050565b60006111d982610d83565b91506111e483610d83565b92508282039050818111156111fc576111fb610f07565b5b92915050565b60006040820190506112176000830185610e26565b81810360208301526112298184610c5f565b90509392505050565b7f54686973206f7065726174696f6e206973207265737472696374656420746f2060008201527f4f574e4552206f6e6c7900000000000000000000000000000000000000000000602082015250565b600061128e602a83610c13565b915061129982611232565b604082019050919050565b600060208201905081810360008301526112bd81611281565b9050919050565b60006112cf82610d83565b91506112da83610d83565b92508282019050808211156112f2576112f1610f07565b5b9291505056fea2646970667358221220cf1c8908d287a45eb21f5ac2159ba1c678ed64da32fa9d224cf93060bf483cd864736f6c6343000812003352657669766520506f74696f6e2028312044474e292c20546f74656d206f66205772617468202835302044474e292c20426f6f6b206f6620506f7765722838302044474e29",
  "linkReferences": {},
  "deployedLinkReferences": {}
}